:1000000045C0000060C000005EC000005CC0000091
:100010005AC0000058C0000056C0000054C0000084
:1000200052C0000050C000004EC000004CC0000094
:100030004AC0000003C1000046C0000044C00000E8
:1000400042C0000040C000003EC000003CC00000B4
:100050003AC0000038C0000036C0000034C00000C4
:1000600032C0000030C000002EC000002CC00000D4
:100070002AC0000028C0000026C0000024C00000E4
:1000800022C0000020C000001EC0000011241FBEBE
:10009000CFEFD0E4DEBFCDBF11E0A0E0B1E0ECE5F2
:1000A000F4E000E00BBF02C007900D92A430B1074E
:1000B000D9F721E0A4E0B1E001C01D92A031B20760
:1000C000E1F7A1D1C9C19CCF8FEB84B980E485B998
:1000D0008CB581658CBD08958EBD0DB407FEFDCF36
:1000E0008EB508952C98880F8068F6DF80E0F4DFE5
:1000F0002C9A0895CF93C62F2C98880F8E77ECDF1B
:100100008C2FEADF2C9ACF9108956FE081E0F2DF27
:100110006DE88AE2EFDF6EE38BE2ECDF63E08CE216
:10012000E9DF68EE8DE2E6DF60E485E1E3DF6DE3C1
:1001300081E1E0DF84E1D6DF682F636084E1DACF1C
:100140000895CF93DF9360E08DE0D4DF6FE784E024
:10015000D1DF60E88AE0CEDF60E081E0CBDF63E9F9
:1001600089E0C8DF60E289E0C5DF6CE081E0C2DFE2
:100170008DE0B8DF682F60688DE0BCDFC0EDD7E0B0
:1001800084E0B0DF807311F42197D1F78DE0AADF0E
:10019000682F6F778DE0AEDF89E0A4DF90E0DF911C
:1001A000CF910895CF93DF9367E08DE0A3DF84E0E4
:1001B00099DF682F6F7784E09DDF60E88AE09ADF3F
:1001C00060E081E097DF62E589E094DF6CE081E048
:1001D00091DF8DE087DF682F60688DE08BDFC0EDF9
:1001E000D7E084E07FDF2197E1F789E07BDFDF91D3
:1001F000CF9108958BE0809381008DE790E09093FC
:1002000089008093880082E080936F0010928500BF
:10021000109284008091000190910101A09102014F
:10022000B09103018093070190930801A093090105
:10023000B0930A018FB780688FBF08951F920F9205
:100240000FB60F9211248F939F93AF93BF9380911A
:10025000070190910801A0910901B0910A0101974D
:10026000A109B1098093070190930801A0930901A6
:10027000B0930A01892B8A2B8B2B99F481E0809310
:100280000B018091000190910101A0910201B091B8
:1002900003018093070190930801A0930901B09393
:1002A0000A01BF91AF919F918F910F900FBE0F9058
:1002B0001F901895892B29F010920F0180E090E093
:1002C000089570DF80930E01843031F43ADF80931B
:1002D0000F0181E090E0089510920F0181E090E01D
:1002E000089580910D018230E9F028F4882341F0CF
:1002F000813051F034C08330F1F0843051F12FC09F
:1003000081E080930D013CC080910F01803D21F47C
:1003100082E080930D0144C08B3191F584E080939D
:100320000D0167C083E080930D01809104018F5F10
:100330008093040117C080910F01803D21F482E079
:1003400080930D012DC08B31A9F584E080930D01C0
:1003500050C081E080930D011092040103C01092FF
:100360000D01089580910D018230D1F020F481308B
:1003700009F048C005C08330E9F08430D1F1089518
:1003800080E090E097DF10920501809106018E7F5A
:100390008093060181E082B9809106018BB90895AE
:1003A00081E08093050180910601816080930601C0
:1003B0008BB9089580E090E07DDF10920501809177
:1003C00006018E7F809306018BB9809104018130F4
:1003D00019F483E082B90895823019F487E082B974
:1003E0000895833019F48FE082B908958FE182B9BE
:1003F000089581E0809305018091060181608093DA
:1004000006018BB9089560DE80DE8FEF81B912B8E6
:1004100017B888B98AB91BB880E590E0A0E0B0E0D1
:100420008093000190930101A0930201B093030116
:100430008093070190930801A0930901B0930A01EA
:10044000D9DE10920D0186B14CDF80910B0188231B
:0C045000E1F310920B01F7CFF894FFCFFE
:04045C00010000009B
:00000001FF
