:1000000045C0000060C000005EC000005CC0000091
:100010005AC0000058C0000056C0000054C0000084
:1000200052C0000050C000004EC000004CC0000094
:100030004AC00000C7C0000046C0000044C0000025
:1000400042C0000040C000003EC000003CC00000B4
:100050003AC0000038C0000036C0000034C00000C4
:1000600032C0000030C000002EC000002CC00000D4
:100070002AC0000028C0000026C0000024C00000E4
:1000800022C0000020C000001EC0000011241FBEBE
:10009000CFEFD0E4DEBFCDBF11E0A0E0B1E0E0EFF4
:1000A000F3E000E00BBF02C007900D92A432B1074D
:1000B000D9F721E0A4E2B1E001C01D92AE32B2074F
:1000C000E1F75BD193C19CCF181619065CF0089537
:1000D000000021503109E1F74F5F5F4F4817590782
:1000E00029F4089540E050E077E063E0272F362FB1
:1000F000EFCF2E988BB92F9A00002F9882E090E0D6
:10010000E3CF089581E0F5CF0895813118F4815847
:10011000F0CF08958155EDCF089584E690E0D4DFC7
:1001200088E3E7DF86E0E5DF8FE0E3DF81E0E1DF22
:100130008AE090E0C9CF08952E9A8BB92F9A0000DB
:100140002F9881E090E0C0CF08950F931F93CF9335
:10015000DF93182FEB01D6DF8881882351F001E06F
:10016000010F812FD2DF8991E7DF102F8881811164
:10017000F6CFDF91CF911F910F9108958BE080937F
:1001800081008DE790E0909389008093880082E061
:1001900080936F001092850010928400809100017E
:1001A00090910101A0910201B09103018093270178
:1001B00090932801A0932901B0932A018FB78068FA
:1001C0008FBF08951F920F920FB60F9211248F9335
:1001D0009F93AF93BF938091270190912801A091A5
:1001E0002901B0912A010197A109B1098093270142
:1001F00090932801A0932901B0932A01892B8A2B7F
:100200008B2B99F481E080932B01809100019091D8
:100210000101A0910201B091030180932701909305
:100220002801A0932901B0932A01BF91AF919F911A
:100230008F910F900FBE0F901F90189590912D01E8
:10024000913041F018F0923059F010C081E0809365
:100250002D010FC0813069F482E080932D010FC021
:1002600081110DC081E080932D0103C010922D01FA
:10027000089548DF64E071E081E067CF089542DFD0
:1002800065E171E081E061CF089590912C01923099
:10029000D9F028F4992341F0913051F02DC09330DA
:1002A000C9F0943019F128C081E080932C0127C057
:1002B000813021F482E080932C0130C04130F9F488
:1002C00084E080932C0149C0613041F583E0809344
:1002D0002C0133C0813021F482E080932C011EC0B8
:1002E000413059F584E080932C0137C06130A9F585
:1002F00081E080932C0103C010922C01089510928C
:10030000250110922401809126018C7F8093260183
:1003100080E094DF8091260185B9089581E0809383
:10032000250180932401809126018360809326011A
:1003300085B98091240182CF08951092250181E032
:1003400080932401809126018E7F82608093260114
:1003500085B98091240172CF089581E080932501B1
:1003600010922401809126018D7F81608093260167
:1003700085B98091240162CF089517B88FEF88B9AD
:1003800081B912B884B915B88AB91BB8C6DE8AE03B
:1003900090E0A0E0B0E08093000190930101A09371
:1003A0000201B09303018093270190932801A09349
:1003B0002901B0932A01E2DE10922C0110922D0146
:1003C00086B18095682F70E0AB015595479555959E
:1003D00047954170759567956170817056DF809182
:1003E0002B018823E1F310922B01EACFF894FFCF81
:1003F0000100000050616B536166652069732065E0
:100400006D707479005061636B61676520696E730C
:0404100069646500B6
:00000001FF
